:1009C900120A4B7590FFA2B09290A2B19291A2B275
:0809D9009292A2B3929380EE0A
:020AB40000221E
:0D09EF0000000000000000000000000022D9
:050A8C007F03020A8552
:050A91007F09020A8547
:050A96007F14020A8537
:050A9B007F35020A8511
:070A54007F537E000209FC44
:070A5B007FA87E000209FCE8
:070A62007FA77E010209FCE1
:070A69007F507E030209FC2F
:070A70007FA37E060209FCD2
:070A77007F9B7E100209FCC9
:070A7E007F397E210209FC13
:050AA0007F140209E1D2
:050AA5007F320209E1AF
:050AAA007F640209E178
:050AAF007FC80209E10F
:0B0A14007F007E007D007C3F02099502
:0B0A1F007F007E007D807C3F02099577
:0B0A2A007F007E007D007C40020995EB
:0B0A35007F007E007DA07C4002099540
:0B0A40007F007E007D207C41020995B4
:060A8500EF60031F80FA80
:010A8B002248
:0B09FC00EF4E6007EF1F70F81E80F543
:010A070022CC
:0D09E1008F0EE50E6007120A69150E80F5F5
:0109EE0022E6
:080995008F0B8E0A8D098C08FE
:10099D00E4FFFE7DC87C42AB0BAA0AA909A8081288
:1009AD0008001209068E0C8F0DE50D150DAE0C709D
:0B09BD0002150C4E6005120A7E80EE51
:0109C800220C
:090A4B00D2A3C2A5D2A6C2A722C3
:10080000EC4D6011E8497017ED33EC3304600DE4F2
:10081000FCFFFEFD22E933E8330470F8020972128E
:10082000093D58046009E4CC24815006285009028F
:10083000097C284003020979C0E0EB4A7044B98082
:1008400006D0E0FB020968EF4E701CBD8008EBFF8C
:10085000EAFEE9FD80EBE98DF0A4FEE5F00208E98F
:10086000E9CDF9EAFEEBFFEF89F0A4FCE5F0CE89D3
:10087000F0A42EFFE435F0CD89F0A42DFEE435F090
:100880008067EF4E7005BD80D780C3EF8BF0A4ACBE
:10089000F0EE8BF0A42CFCE435F0F8EF8AF0A42CF9
:1008A000E5F038FCE433CB8DF0A42CFCE5F03BF80C
:1008B000EE8AF0A42CFCE5F038F8E433CF89F0A4FC
:1008C0002CFCE5F038CF3400CE89F0A42FFFE5F002
:1008D0003EFEE433C98DF0A42EFEE5F039CD8AF05A
:1008E000A42FFFE5F03EFEE43DFD33D0E0FB5007D2
:1008F0000BBB000F02097CEC2CFCEF33FFEE33FE48
:06090000ED33FD02095475
:10090600EDD2E7CD33EC3392D524814006E4FFFEE9
:10091600FDFC22FCE4CFCECDCC24E0501174FF8048
:10092600EDC3CC13CCCD13CDCE13CECF13CF0470E5
:07093600F030D5DE02098755
:10093D00E9D2E7C933E833F892D5EDD2E7CD33EC00
:07094D0033FC5002B2D52279
:10095400EC30E7100FBF000C0EBE00080DBD000404
:100964000BEB6014A2D5EB13FCED92E7FD2274FFB0
:10097400FCFDFEFF22E480F8A2D574FF13FC7D8009
:03098400E480EF1D
:03000000020A08E9
:0C0A0800787FE4F6D8FD75810E0209C964
:0E098700C3E49FFFE49EFEE49DFDE49CFC2281
:00000001FF
